:400000000080002011000000496A0000496A000080B500AF024A034B1B68136006F01EFDBC760040FA46004010B5054C237833B9044B13B10448AFF300800123237010BD90
:400040007081FF1F00000000D8A60000084B10B51BB108490848AFF300800848036803B910BD074B002BFBD0BDE81040184700BF000000007481FF1FD8A60000C880FF1FB6
:400080000000000080B584B002AF7860002202210A2004F021FB0246114B1A60104B1B68002B19D00E4B1B680E49184604F00EFF002301937B680093094B64220A490B4880
:4000C00003F010F9002301937B680093044B64220749084803F006F900BF0837BD4680BD9481FF1FE4A60000F4A6000065010000FCA60000F900000080B586B000AF7860E8
:400100000023FB8100237B6100233B6120E07B68186807F10E010023002204F071FB0346012B02D001237B610FE07B69002B08D105F068F80A4B1B680133094A136005F019
:4001400079F8FB8901339BB2FB813B6901333B613B69022BDBDDC82003F0B6FAD4E700BF9081FF1F80B586B000AF78600023FB8200233B6122E07B68186807F10E0100237C
:40018000002204F03FFC0346012B17D1FB89FA8A9A4204D001233B61FB89FB820BE03B69002B08D105F02EF80A4B1B680133094A136005F03FF8FB8A0133FB827B681B68D0
:4001C000184604F04DFD0346002BD4D1B42003F07BFACFE78C81FF1F80B483B000AF0C4B1B68002B03D00B4B1B68002B02D100237B6001E001237B60054B00221A60054B4E
:4002000000221A607B6818460C37BD4680BC70478C81FF1F9081FF1F80B584B002AF00220421052004F058FA78607B68002B2BD01749786804F04AFE0023019300230093B8
:400240007B6864221349144803F04CF8134B0193012300937B6864221149124803F042F8114B0193022300937B6864220F49104803F038F80F4B0193032300937B6864223F
:400280000D490E4803F02EF800BF0837BD4680BD04A7000018A70000AD0400009C05002020A70000450400009805002028A70000B9030000A005002030A70000C1020000A8
:4002C00080B584B000AF78607B68FB6007F1080101234FF0FF32F86804F094FB0346012B02D0314B01221A60BB68304A934202D02D4B01221A60F86804F0B2FC0346012B28
:4003000002D0294B01221A600023BB6007F1080100230022F86804F075FB0346012B02D0214B01221A60BB68204A934202D01E4B01221A6007F1080101234FF0FF32F86813
:4003400004F060FB0346012B02D0174B01221A60BB68174A934202D0134B01221A60F86804F07EFC0346012B02D00F4B01221A60002003F0D3FA07F1080101234FF0FF3241
:40038000F86804F03FFB0346012B02D0064B01221A60BB68074A934202D0034B01221A60002003F0BBFA91E79881FF1F4433221167452301BBAABBAA80B584B000AF7860C9
:4003C0007B68FB6007F1080101234FF0FF32F86804F018FB0346012B02D0174B01221A60BB68164A934202D0134B01221A60F86804F036FC0346012B02D00F4B01221A6094
:40040000002003F08BFA07F1080100234FF0FF32F86804F0F7FA0346012B02D0064B01221A60BB68064A934202D0034B01221A60002003F073FAC5E79881FF1F67452301DE
:40044000BBAABBAA80B584B000AF78607B68FB6007F1080101234FF0FF32F86804F0D2FA0346012B02D00E4B01221A60BB680D4A934202D00A4B01221A60F86804F0F0FB40
:400480000346012B02D0064B01221A60064B1B680133054A1360002003F040FAD8E700BF9881FF1F674523019C81FF1F80B584B000AF78607B68FB60384BBB6007F1080163
:4004C00000230022F86804F09BF90346012B02D0334B01221A60F86804F0C2FB0346002B02D02F4B01221A602E4BBB6007F1080100230022F86804F083F90346012B02D00E
:40050000274B01221A600023BB6007F1080100230022F86804F076FA0346012B02D0204B01221A600A2003F0CFF81F4B1B68184603F098FA1D4B1B68184603F093FA1C4B31
:400540001B68184603F08EFA1A4BBB6007F1080101230022F86804F053F90346012B02D00F4B01221A6007F1080101230022F86804F048FA0346002B02D0094B01221A6066
:400580000A4B1B68184603F06DFA094B1B68184603F068FA0A2003F097F88DE7443322119881FF1F674523019C05002098050020A0050020BBAABBAA80B400AF0B4B1A6888
:4005C0000B4B1B689A4202D10A4B01221A60084B1B68064A1360074B1B68002B0CBF01230023DBB21846BD4680BC7047A081FF1F9C81FF1F9881FF1F80B588B002AF78604E
:4006000064237B610C2004F089FC38613B69002B39D003220021012004F05EF802463B691A603B691B68002B2DD03B69186800230022002104F0E4F8042004F06FFC0246B6
:400640003B695A603B695B68FF221A603B6900229A6000230193002300933B6964222D492D4802F03FFE00230193002300933B6964222A49284802F035FE3B691B68284972
:40068000184604F023FC0C2004F048FCF860FB68002B3AD003220021012004F01DF80246FB681A60FB681B68002B2ED0FB68186800230022002104F0A3F8042004F02EFCB7
:4006C0000246FB685A60FB685B6840F6FF721A60FB687A699A60002301937B680093FB68642210490C4802F0FDFD002301937B680093FB6864220C49074802F0F3FDFB6860
:400700001B680A49184604F0E1FB00BF1837BD4680BD00BF38A700003107000040A7000048A7000058A7000060A7000068A7000080B588B000AF786000237B8304F062FD3E
:400740003D4B1B883B833C4B1B881BB29BB201339BB21AB2384B1A8004F06CFD7B687B617B695B683B617B699B68002B03D040F6FF73FB6001E0FF23FB607B6918687B69F5
:400780009A680023002104F03DF90346012B45D13B691A68FB689A4201D001237B830023FB610CE03B69FA691A603B691A68FB699A4201D001237B83FB690133FB61FB684A
:4007C000FA699A42EED97B69186800230022002104F016F80346002B01D101237B83B7F91A30002B10D1B7F91830032B0CDCB7F91830124A32F8132012B292B2013292B27B
:4008000011B20E4A22F813107B699A6813469B0013445B00184602F057FFAEE77B699B68002BAAD1064B4FF080521A60BFF34F8FBFF36F8FA1E700BFAC81FF1FA481FF1F1B
:4008400004ED00E080B483B000AF01233B6000237B6018E0104A7B6832F913200F497B6831F813301BB29A4201D100233B600B4A7B6832F8133019B2074A7B6822F8131080
:400880007B6801337B607B68032BE3DD3B6818460C37BD4680BC7047B081FF1FA481FF1F80B58EB002AF78600123FB620523BB624FF47A737B6200233B620C2004F02EFBD1
:4008C000F86100220221F86A03F006FF0246FB691A60FB697A6A5A60FB69484A9A600C2004F01CFBB861FB691A68BB691A60BB693A6A5A60BB69424A9A60002301937B684E
:400900000093FB6964223F493F4802F0EBFC0023019300230093BB6964223C493C4802F0E1FC0C2004F0FAFA786100220221F86A03F0D2FE02467B691A607B693A6A5A6024
:400940007B69344A9A600C2004F0E8FA38617B691A683B691A603B697A6A5A603B692E4A9A6000230193002300937B6964222B49254802F0B7FC002301937B6800933B6976
:4009800064222749224802F0ADFC0C2004F0C6FAF86000220221B86A03F09EFE0246FB681A60FB687A6A5A60FB681E4A9A600C2004F0B4FAB860FB681A68BB681A60BB6898
:4009C0007A6A5A60BB68184A9A600023019300230093FB68642215490D4802F083FC0023019300230093BB6864221149064802F079FC00BF3037BD4680BD00BFB881FF1FBF
:400A0000C081FF1F78A700008D0A000080A70000350A0000C281FF1FBA81FF1F88A7000090A70000C481FF1FBC81FF1F98A70000A0A7000080B586B000AF78600023FB8146
:400A40000023FB827B683B613B6918683B695A6807F10E01002303F0D3FE0346012B02D00123FB82F0E7B7F91630002B08D13B699B681A8812B292B2013292B212B21A8000
:400A8000FB8901339BB2FB81DEE700BF80B586B000AF78600023FB820023BB827B683B613B6918683B695A6807F10E01002303F0A9FF0346012BF3D1FB89FA8A9A4204D080
:400AC000FB89FB820123BB82EAE7B7F91430002B08D13B699B681A8812B292B2013292B212B21A80FB8A0133FB82D9E780B483B000AF01237B6000233B602EE01B4A3B68C6
:400B000032F813301AB21A493B6831F913309A4201D100237B60154A3B6832F8133019B2134A3B6822F81310124A3B6832F813301AB211493B6831F913309A4201D1002373
:400B40007B600C4A3B6832F8133019B20A4A3B6822F813103B6801333B603B68022BCDDD7B6818460C37BD4680BC7047B881FF1FC881FF1FC081FF1FD081FF1F80B582B0DC
:400B800002AF00220421052003F0A6FD0246114B1A60104B1B68002B19D00E4B1B680E49184604F093F90023019302230093002364220A490A4802F095FB0A4B0193012315
:400BC0000093002364220849084802F08BFB00BFBD4680BDD881FF1FA8A70000BCA70000F10B0000DC81FF1FC4A70000CD0E000080B588B000AF786000F0D4F900233B614B
:400C00002EE03B690A2202FA03F3FB6103F04CF8B861A94B186807F10C010023FA6903F0F1FE0346002B02D0A44B01221A6003F03BF80246BB69D31A7B617A69FB699A4207
:400C400002D29E4B01221A60FB6903F10F027B699A4202D2994B01221A603B6901333B613B69042BCDDD00233B6110E0924B186807F110010023002203F0C2FD0346012B2A
:400C800002D08E4B01221A603B6901333B613B69042BEBDD00233B612EE03B690A2202FA03F3FB6103F000F8B861834B186807F110010023FA6903F0A3FD0346002B02D038
:400CC0007E4B01221A6002F0EFFF0246BB69D31A7B617A69FB699A4202D2784B01221A60FB6903F10F027B699A4202D2734B01221A603B6901333B613B69042BCDDD704B1E
:400D000000221A606F4B1B68184602F0ABFE02E0142002F0D9FC6A4B1B68552BF8D1142002F0D2FC664B00221A6000233B6138E0614B186807F10C010023002203F062FEA2
:400D40000346012B02D05D4B01221A605A4B186807F110010023002203F052FD0346012B02D0564B01221A60554B1B68552B02D1524B01221A60534B1B680421184602F067
:400D80002DFD4F4B1B68552B02D14C4B01221A604C4B1B680121184602F020FD3B6901333B613B69042BC3DD02E0142002F08CFC434B1B68552BF8D1142002F085FC404BB9
:400DC00000221A6000233B6110E03B4B186807F10C010023002203F015FE0346012B02D0364B01221A603B6901333B613B69042BEBDD344B1B68184602F034FE02E0142044
:400E000002F062FC2E4B1B68552BF8D1142002F05BFC2B4B00221A6000233B6138E0264B186807F110010023002203F0E9FC0346012B02D0214B01221A601F4B186807F16E
:400E40000C010023002203F0DDFD0346012B02D01A4B01221A601A4B1B68552B02D1174B01221A60174B1B680421184602F0B6FC134B1B68552B02D1104B01221A60114B3C
:400E80001B680121184602F0A9FC3B6901333B613B69042BC3DD02E0142002F015FC084B1B68552BF8D1142002F00EFC064B1B680133054A13609FE6D881FF1FE881FF1FFC
:400EC000EC81FF1FDC81FF1FE081FF1F80B586B000AF7860002002F021FD02F0E5FE78610023FB602B4B55221A602B4B186807F10C010023AF2203F083FC0346002B02D011
:400F0000264B01221A6002F0CFFE02467B69D31A3B613B69AE2B02D8204B01221A603B69BE2B02D91D4B01221A601A4B55221A60002002F0F3FC02F0B7FE7861154B5522B5
:400F40001A60154B186807F10C010023AF2203F059FD0346002B02D0104B01221A6002F0A3FE02467B69D31A3B613B69AE2B02D80A4B01221A603B69BE2B02D9074B012229
:400F80001A60044B55221A60054B1B680133044A13609FE7EC81FF1FD881FF1FE881FF1FE481FF1F80B588B000AF4B23BB6105237B6107233B610321002002F00FFC02F07A
:400FC00073FEF860AF2002F07FFB02F06DFEB860BA68FB68D21A3B69AF339A4202D91B4B01221A6002F060FEB860BB683B600023FB611FE0FB69BA6902FB03F2BB68134430
:401000007B603B46B969184602F00EFB02F04CFE02467B68D21A3B69AF339A4202D90B4B01221A600A4B1B680133094A1360FB690133FB61FA697B699A42DBD3022100207C
:4010400002F0CCFB00BF2037BD4680BDE881FF1FE081FF1F80B483B000AF01237B60124B1A68124B1B689A4201D100237B60104B1A68104B1B689A4201D100237B600E4B1B
:401080001B68012B01D100237B60094B1B68094A1360054B1B68054A13607B6818460C37BD4680BC704700BFE081FF1FF081FF1FE481FF1FF481FF1FE881FF1F80B586B030
:4010C00002AFF860B9607A600F4A7B6813601821B86804F069FBFB68013B0022019200930023642209490A4802F0FCF800230193FB680093002364220649074802F0F2F8AA
:4011000000BF1037BD4680BDFC81FF1FCCA700001D110000D4A70000A111000080B584B000AF78604123FB7312E01A4B1B6897F90F100022184604F08DFB0346012B04D16F
:40114000154B1B68184604F013FBFB7B0133FB73FB7B582BE9D9104B1B680021184604F0C9FA02F0A1FD03460333BB60BB680B4AA2FB03121209962101FB02F29B1ABB605F
:40118000BB68312B01D83223BB60B86802F09CFAC8E700BFF881FF1FFC81FF1FB5814E1B80B586B000AF786000233B610023FB604123FB7521E0264B1B6807F10B014FF63F
:4011C000FF72184604F02AFB0346002B0FD097F90B3097F917209A4206D11E4B1B680133184604F0C5FA02E001233B6109E097F91730DBB20133DBB2FB7597F91730582BC4
:40120000D9DD144B1B6801330021184604F072FA3B69012B13D108E00D4B1B6807F10B014FF6FF72184604F0F9FA97F90B30582BF2D1FB680133FB6000233B61B8E7FB68C9
:40124000012BB5DC044B1B680133034A1360AFE7F881FF1FFC81FF1F0082FF1F80B483B000AF094B1B68002B02D100237B6001E001237B60044B00221A607B6818460C374B
:40128000BD4680BC704700BF0082FF1F80B582B002AFC821C82003F09DFA02461F4B1A601E4BAA225A601D4B00229A600021C82003F090FA0246194BDA60184B00221A615B
:4012C000164B00225A61154B1B68002B03D1134BDB68002B1FD0114B1B681149184603F0F5FD0E4BDB680F49184603F0EFFD0023019300230093094B64220B490B4801F087
:40130000F1FF0023019300230093094B64220949064801F0E7FF00BFBD4680BD0882FF1FDCA70000ECA70000FCA70000311400001482FF1F04A8000080B584B000AF78600A
:401340003960002300220021786803F059FA0346012B02D1164B01221A600023FB6013E0002300220021786803F04CFB0346012B02D00F4B01221A603B681B685A1C3B6894
:401380001A60FB680133FB60FB68C72BE8D9002300220021786803F035FB0346012B02D1034B01221A6000BF1037BD4680BD00BF0482FF1F80B584B000AF786039600023BA
:4013C00000220021786803F01DFB0346012B02D1164B01221A600023FB6013E0002300220021786803F00CFA0346012B02D00F4B01221A603B681B685A1C3B681A60FB686F
:401400000133FB60FB68C72BE8D9002300220021786803F0F5F90346012B02D1034B01221A6000BF1037BD4680BD00BF0482FF1F80B584B000AF78607B68FB60FB685B68B0
:40144000AA2B07D1FB681A68FB68083319461046FFF772FFFB68186800230022002103F0D1FA0346012B02D1094B01221A60FB681A68FB68083319461046FFF79BFFFB68B5
:401480001A68FB68083319461046FFF755FFEEE70482FF1F80B483B000AF01237B60134B1B68002B01D000237B60114B9A68114B1B689A4202D100237B6003E00C4B9B687D
:4014C0000C4A13600A4B5A690B4B1B689A4202D100237B6003E0064B5B69074A13607B6818460C37BD4680BC704700BF0482FF1F0882FF1F2082FF1F2482FF1F80B584B057
:4015000002AF7860002301937B6800930023A0220849094801F0E6FE02F0D4FB0246074B1A60064B1B680133044A136000BF0837BD4680BD10A80000911500002C82FF1F93
:4015400080B586B000AF7860C8233B617B68002B03D07B681B687B6101E000237B610223FB605923BB60FB68BA6802FB03F3BB60386902F0A9F87B69002BF0D0002002F030
:40158000A3F8786901F0D2FF002001F0CFFFE6E780B586B002AF78604FF47A73FB60002002F002F9B860F86802F08EF80F4B00221A600E4B0193BB680093002364220C492E
:4015C0000C4801F08FFE00230193BB680093074B64220949074801F085FE084B1B889BB201339AB2054B1A80DDE700BFA405002018A800004115000020A800002882FF1F20
:4016000080B582B000AF01237B60164B1A88164B1B889BB29A4202D100237B6004E0124B1B889AB20F4B1A8002F04CFB02460F4B1A600E4B1A680E4B1B689A4202D2002391
:401640007B6009E0094B1A68094B1B68D31A0322934201D900237B607B6818460837BD4680BD00BFCC80FF1F2882FF1F3082FF1F2C82FF1F80B582B002AF0022042101206D
:4016800003F02AF80246204B1A601F4B1B68002B37D01D4B1B681D49184603F017FC1C4B0193002300931B4B64221B491B4801F019FE1B4B019301230093164B64221949AE
:4016C000194801F00FFE0023019300230093002364221649164801F005FE0023019300230093002364221349134801F0FBFD0023019300230093002364221049104801F056
:40170000F1FD00BFBD4680BDA805002028A800003482FF1F3C82FF1F40A80000711700003882FF1F48A800004517000050A80000A517000058A800006918000060A800009E
:40174000B118000080B584B000AF78607B68FB60002002F0E3F8FB681B685A1CFB681A60FB681B68FE2BF6D9002002F0D7F8F2E780B584B000AF78607B68FB60002002F074
:4017800013F8B860BB6801331946002002F026F8FB681B685A1CFB681A60B968002002F01DF8EFE780B584B000AF78600023BB81294B00221A600023FB8120E0274B1B68D6
:4017C000184602F0ABF8244B1B68BB60234B1B68184602F047F9802001F076FF02F0C8F91D4B1B68BA689A4201D10123BB8102F0CDF9B7F90E309BB201339BB2FB81B7F9F4
:401800000E30042BDADD154B1B68184602F086F8114B00221A60124B1B68184602F022F90D4B1B68FF2B01D00123BB81B7F90C30002B0AD103F0E6FC0A4B1B889BB201331A
:401840009AB2084B1A8003F0F5FC044B1B68184602F008F9ACE700BF3C82FF1F3482FF1F3882FF1F4082FF1F80B582B000AF786002F07EF90B4B1868002300220A4902F0B7
:40188000BFFF0346012B02D0084B01221A6002F07DF9802001F018FF034B1B680133024A1360E5E7A80500205082FF1F4482FF1F80B584B000AF786002F05AF902F058F97A
:4018C000134B186807F108010023002203F09AF8F86002F05BF90346002B02D00D4B01221A6002F053F9FB68002BE5D0BA680A4B1B689A4202D0074B01221A60054B1B687B
:40190000012BD9D0044B1B680133034A1360D3E7A80500204882FF1F4C82FF1F80B483B000AF01237B60164B1B889AB2154B1B889A4201D100237B60134B1A68134B1B68DC
:401940009A4201D100237B60114B1B68012B01D100237B600F4B1B68012B01D100237B60074B1B889AB2074B1A80074B1B68074A13607B6818460C37BD4680BC704700BF08
:401980004082FF1F5482FF1F4C82FF1F5882FF1F4482FF1F4882FF1F80B586B002AF78600023FB600CE0002301937B680093002364220749074801F095FCFB680133FB605C
:4019C000FB68002BEFDD00BF1037BD4680BD00BF68A80000D919000080B586B000AF786003F010FC154B1B687B61144B1B680133124A136003F01EFC7B69013340F2E73281
:401A000002FB03F33B613B695B083B6102F04CF90346FB6007F10C033969184601F004FE786903F0A5FE07F10C033969184601F0FBFD786903F09CFEECE700BF5C82FF1F3C
:401A400080B584B002AF7860002301937B680093134B64221349144801F044FC002301937B680093114B64221149124801F03AFC002301937B6800930F4B64220F491048D3
:401A800001F030FC002301937B6800930D4B64220D490E4801F026FC00BF0837BD4680BD6082FF1F70A80000D11A00006282FF1F78A80000D91B00006482FF1F80A80000BC
:401AC000E11C00006682FF1F88A80000111E0000F0B58FB000AF78600023FB8636A4D4E90034C7E90A3436A4D4E90034C7E9083435A4D4E90034C7E90634D7E90A01D7E9C6
:401B000008341A46234607F06FFF03460C4618462146D7E906341A46234608F017F903460C46C7E902347B683B6323A4D4E90034C7E90A3422A4D4E90034C7E9083422A4FF
:401B4000D4E90034C7E90634D7E90A01D7E908341A46234607F048FF03460C4618462146D7E906341A46234608F0F0F803460C46C7E90434D7E90401D7E902341A462346B2
:401B800007F030FF03460C461D4624F0004610A3D3E900232846314608F068FB0346002B01D00123FB86B7F93630002BBDD13B6B01221A80B9E700BF5305A3923ADD5E4018
:401BC00082E2C7985B53A240B29DEFA7C6B18CC0FCA9F1D24D62503FF0B58FB000AF78600023FB8636A4D4E90034C7E90A3436A4D4E90034C7E9083435A4D4E90034C7E94B
:401C00000634D7E90A01D7E908341A46234608F0C7F903460C4618462146D7E906341A46234608F093F803460C46C7E902347B683B6323A4D4E90034C7E90A3422A4D4E951
:401C40000034C7E9083422A4D4E90034C7E90634D7E90A01D7E908341A46234608F0A0F903460C4618462146D7E906341A46234608F06CF803460C46C7E90434D7E90401BB
:401C8000D7E902341A46234607F0ACFE03460C461D4624F0004610A3D3E900232846314608F0E4FA0346002B01D00123FB86B7F93630002BBDD13B6B01221A80B9E700BFA4
:401CC000AE47E17A145678C0CDCCCCCC8CBCDF4039D6C56D340000C0FCA9F1D24D62503F2DE9F0418EB000AF78600A23FB6200237B867B68BB62FB6ADB00184603F00EF92D
:401D000078624FF000034FF00004C7E906344FF000034FF00004C7E9043400237B6329E07B6BDB007A6A02EB0308786B07F098FF4FF00002344B07F057FE03460C46C8E97D
:401D40000034786B07F08CFF4FF000022E4B07F04BFE03460C4618462146D7E906341A46234607F041FE03460C46C7E906347B6B01337B637A6BFB6A9A42D1D300237B632F
:401D800012E07B6BDB007A6A1344D3E90001D7E904341A46234607F027FE03460C46C7E904347B6B01337B637A6BFB6A9A42E8D3D7E90601D7E904341A46234607F012FEB0
:401DC00003460C46C7E90234D7E902341D4624F000460BA3D3E900232846314608F046FA0346002B01D001237B86B7F93230002B87D1BB6A01221A8083E700BFAFF30080D9
:401E0000FCA9F1D24D62503F00001640000000002DE9F0418EB000AF78600A23FB6200237B867B68BB62FB6ADB00184603F076F878624FF000034FF00004C7E906344FF065
:401E400000034FF00004C7E9043400237B6329E07B6BDB007A6A02EB0308786B07F000FF33A3D3E9002307F071FF03460C46C8E90034786B07F0F4FE2DA3D3E9002307F0A6
:401E800065FF03460C4618462146D7E906341A46234607F0A9FD03460C46C7E906347B6B01337B637A6BFB6A9A42D1D300237B6312E07B6BDB007A6A1344D3E90001D7E94B
:401EC00004341A46234607F08FFD03460C46C7E904347B6B01337B637A6BFB6A9A42E8D3D7E90601D7E904341A46234607F07AFD03460C46C7E90234D7E902341D4624F01E
:401F000000460DA3D3E900232846314608F0AEF90346002B01D001237B86B7F93230002B87D1BB6A01221A8083E700BFAFF30080E5D022DBF93E2840FCA9F1D24D62503F25
:401F400080B483B000AF01237B6000233B6011E00D4A3B6832F813309BB2012B02D000237B6004E0084A3B68002122F813103B6801333B603B68032BEADD7B6818460C3728
:401F8000BD4680BC704700BF6082FF1F80B586B002AF786000220421052002F09DFBF860FB68002B0DD01D49F86802F08FFF002301937B680093FB6864221949194801F0AF
:401FC00091F9012002F0EEFBB860BB68002B21D01549B86802F07AFF0023019300230093BB6864221149124801F07CF9114B019302230093002364220F49104801F072F98E
:402000000F4B019303230093BB6864220D490E4801F068F900BF1037BD4680BD90A80000A0A800004D200000A8A80000B8A800008D2500007C82FF1FC0A80000CD25000047
:402040007882FF1FC8A80000ED25000080B586B000AF78607B687B6101230022A249786902F0CEFB786902F0FBFD0346012B02D09E4B01221A6007F1100100230022786981
:4020800002F0C0FC0346012B02D0984B01221A60954B1A683B699A4202D0944B01221A60786902F0DDFD0346002B02D08F4B01221A60002300228C49786902F0A1FB7869A7
:4020C00002F0CEFD0346012B02D0884B01221A6007F1100100230022786902F093FC0346012B02D0814B01221A60786902F0B8FD0346002B02D07D4B01221A607A4B1A6892
:402100003B699A4202D0794B01221A6002233B6109E007F1100100230022786902F070FB3B6901333B613B69042BF2D9786902F097FD0346032B02D06C4B01221A6001237C
:402140003B6107F1100101230022786902F058FB00233B6107F1100101230022786902F04FFB786902F07CFD0346052B02D05F4B01221A6007F1100101230022786902F023
:402180003FFB0346002B02D0584B01221A6007F1100100230022786902F032FB0346002B02D0524B01221A6000233B612DE007F10C0101230022786902F024FC0346012B12
:4021C00002D04A4B01221A603A69FB689A4202D0464B01221A60FB68DB43FB6007F10C0100230022786902F00DFC0346012B02D03E4B01221A603A69FB689A4202D03B4B50
:4022000001221A603B6901333B613B69042BCED9786902F025FD0346002B02D0334B01221A600A233B6107F1100100230022786902F0E6FA0346012B02D02C4B01221A6098
:402240000B233B6107F1100100230022786902F0D7FA0346012B02D0244B01221A60786902F0FEFC0346022B02D0204B01221A6009233B610FE007F110010123002278694B
:4022800002F0BEFA0346012B02D0184B01221A603B69013B3B613B69062BECD8786902F0DFFC0346052B02D0104B01221A6007F1100101230022786902F0A2FA0346002BF5
:4022C00002D00A4B01221A6007F1100100230022786902F095FA0346002B02D0034B01221A6007233B611AE06C82FF1F6882FF1F07F10C0100230022786902F083FB034681
:40230000012B02D00F4B01221A603A69FB689A4202D00C4B01221A603B6901333B613B690B2BE5D9786902F09BFC0346002B02D0044B01221A60044B1B680133024A136093
:402340008AE600BF6882FF1F6C82FF1F80B582B000AF78603960002300220021786802F051FB0346012B02D0404B01221A60404B00221A60002001F017FA0346002B02D011
:402380003A4B01221A603B4B1B68184601F06AFB002001F009FA0346032B02D0334B01221A600121002001F019FA002001F0FCF90346032B02D02D4B01221A602E4B1B6820
:4023C000184601F04FFB2A4B1B68002B02D0274B01221A60002300220021386802F012FB0346012B02D0214B01221A60002300220021786802F004FA0346012B02D01B4B08
:4024000001221A601A4B1B68002B02D0174B01221A60002001F0C8F90346032B02D0134B01221A60002300220021386802F0E8F90346012B02D00D4B01221A600C4B1B6816
:40244000012B02D0094B01221A60002001F0ACF90346012B02D0054B01221A600021002001F0BCF900BF0837BD4680BD6882FF1F7482FF1F7882FF1F7C82FF1F80B582B0A7
:4024800000AF78603960002300220021786802F0B9FA0346012B02D0384B01221A60384B00221A60002001F07FF90346002B02D0324B01221A60334B1B68184601F0D2FA86
:4024C000002001F071F90346032B02D02B4B01221A602D4B1B68184601F0C4FA284B1B68002B02D0254B01221A60002300220021386802F087FA0346012B02D01F4B0122B0
:402500001A60002300220021386802F079F90346012B02D0194B01221A60194B1B68002B02D0164B01221A60002001F03DF90346032B02D0114B01221A600023002200219E
:40254000786802F05DF90346012B02D00B4B01221A600B4B1B68012B02D0084B01221A60002001F021F90346002B02D0034B01221A6000BF0837BD4680BD00BF6882FF1FD1
:402580007482FF1F7882FF1F7C82FF1F80B584B000AF78607B68FB60012002F003F9B860B968F868FFF7D2FE074B1B680133064A1360B968F868FFF761FF034B1B6801338F
:4025C000014A1360ECE700BF7082FF1F80B582B000AF7860002001F0A1F9034B1B680133014A1360F6E700BF7482FF1F80B584B000AF78607B68FB60002001F08FF9002385
:402600004FF0FF320021F86802F0FCF90346012B02D0084B01221A60002300220021F86802F0EEF80346012BE6D0024B01221A60E2E700BF6882FF1F80B400AF124B1A6886
:40264000124B1B689A4202D1114B01221A60114B1A68114B1B689A4202D10D4B01221A600A4B1B68084A13600B4B1B68094A1360074B1B68002B0CBF01230023DBB2184638
:40268000BD4680BC704700BF8082FF1F6C82FF1F6882FF1F8482FF1F7082FF1F80B586B002AF78600023FB8114E0B7F90E309B000C4A1A44002301937B680093134664222D
:4026C00009490A4800F00EFEB7F90E309BB201339BB2FB81B7F90E30002BE6DD00BF1037BD4680BD8882FF1FD0A80000F126000080B586B000AF78600023FB827B683B6118
:402700007B23FB60FB6803F565334733FB60FB681A469B00D31AFB60FB680D4A82FB03121A449210DB17D31AFB60FB68094A934201D00123FB82B7F91630002BE0D102F0EB
:4027400061FD3B6901221A6002F074FDD8E700BF932449921B77FEFF80B483B000AF01237B6000237B8014E0B7F902300E4A52F82330002B01D100237B60B7F902300A4A89
:40278000002142F82310B7F902309BB201339BB27B80B7F90230002BE6DD7B6818460C37BD4680BC704700BF8882FF1F80B582B002AF2D4B019303230093012364222B49B4
:4027C0002B4800F08FFD2B4B019303230093022364222949264800F085FD0023019300230093002364222549254800F07BFD254B019303230093012364222349234800F0A3
:4028000071FD234B019303230093022364222149214800F067FD0023019300230093002364221E491E4800F05DFD002204210A2001F052FF02461B4B1A60002204210A2024
:4028400001F04AFF0246184B1A60164B1B681749184602F03BFB144B1B681549184602F035FB00BFBD4680BDB4050020D8A800005D290000AC050020E0A80000E8A80000A8
:40288000CD2A0000B0050020F0A800007D2B0000B8050020F8A80000C52C000000A900006D2D00009082FF1F8C82FF1F08A9000018A9000080B582B000AF786039607B6823
:4028C000C72B10D80A4A7B6813441B78002B03D040F2111000F02EF83B68D9B2044A7B6813440A461A7000BF0837BD4680BD00BF7C83FF1F80B582B000AF786039607B6862
:40290000C72B10D80A4A7B6813441B78002B03D04FF4917000F00EF83B68D9B2044A7B6813440A461A7000BF0837BD4680BD00BFB482FF1F80B483B000AF7860054A7B6863
:402940001360054B00221A6000BF0C37BD4680BC704700BFA482FF1FD080FF1F80B58AB000AF786000237B6100233B617B68012B01D102F0D3FC4F4B186807F10C010023F7
:402980008C2202F03FF80346012B04D040F24510FFF7D0FF05E0FB687A6811461846FFF7A9FF454B4FF080521A60BFF34F8FBFF36F8F7B68012BDED1404B1B68FA2BDAD92F
:4029C0003F4B1B68184600F0A9FF00233B620023FB610023BB6101237B622AE0394A7B6A13441B78002B04D14FF4B270FFF7A2FF1CE0344A7B6A13441B78012B03D13B6A0F
:402A000001333B6212E02F4A7B6A13441B78022B03D1FB690133FB6108E02A4A7B6A13441B78052B02D1BB690133BB617B6A01337B627B6AC72BD1D93B6A042B0AD87B69E3
:402A400001337B617B69022B06D940F27F10FFF771FF01E000237B61FB69042B0AD83B6901333B613B69022B06D940F28D10FFF761FF01E000233B61BB69002B03D140F29C
:402A80009710FFF757FFC82200210E4807F01BFE0D4B1B6801330C4A1360084B00221A60002000F03BFF064B1B68184600F0DAFF61E700BF8C82FF1F04ED00E0AC82FF1F56
:402AC000AC050020B482FF1F9482FF1F80B584B000AF7860254B186807F108010023012201F090FF0346002B1BD0214B1B68184600F00EFE0346032B03D040F2BD10FFF7EF
:402B000019FFBB6803211846FFF7F4FE184B1B68184600F0A7FF174B1B680133154A1360D8E70421002000F059FE02F06BFB124B1B680133104A13600F4B1B68FB6002F07D
:402B400079FB0A4B186807F10C0100234FF0FF3201F056FE0346012B03D040F2D510FFF7E9FE0021002000F039FEB3E78C82FF1FB40500209C82FF1FAC82FF1F80B586B0F9
:402B800000AF786000237B6116E002F03BFB464B1B680133444A1360434B1B68FB6002F049FB424B186807F10C0100238C2201F027FE7B6901337B617B69042BE5D902F0D6
:402BC00021FB394B1B680133374A1360364B1B68FB6002F02FFB354B186807F10C0100238C2201F00DFE0346012B03D04FF40070FFF7A0FE2E4B4FF080521A60BFF34F8F1A
:402C0000BFF36F8FFB68FA2BD9D98C2000F05CFD284B1B68184600F081FE274B1B68012B03D140F21320FFF785FE234B01221A6000233B6101237B6116E0204A7B691344BA
:402C40001B78002B04D140F22320FFF773FE08E01A4A7B6913441B78052B02D13B6901333B617B6901337B617B69C72BE5D93B69002B03D140F22F20FFF75CFEC82200214D
:402C80000E4807F020FD0E4B1B6801330C4A1360054B00221A60002000F040FE054B1B68184600F0DFFE8AE7B082FF1F9082FF1F04ED00E0B8050020A882FF1F7C83FF1F95
:402CC0009882FF1F80B584B000AF78600023FB6016E002F097FA214B1B6801331F4A13601E4B1B68BB6002F0A5FA1D4B186807F1080100238C2201F083FDFB680133FB6001
:402D0000FB68042BE5D902F07DFA144B1B680133124A1360114B1B68BB6002F08BFA104B186807F1080100238C2201F069FD0346012B07D00B4B1B68012B03D04FF41A708F
:402D4000FFF7F8FD074B00221A60074B4FF080521A60BFF34F8FBFF36F8FD4E7B082FF1F9082FF1FA882FF1F04ED00E080B584B000AF786042F20F73BB60204B186807F165
:402D800008010023012201F03BFD0346002B16D01B4B1B68184600F0BBFC0346032B03D040F28120FFF7C6FD154B1B68184600F059FE144B1B680133124A1360DDE7042127
:402DC000002000F00BFD0D4B186807F10C0100234FF0FF3201F016FE0346012B04D040F28F20FFF7A7FD04E0FB6803211846FFF761FD0021002000F0F1FCBEE79082FF1F72
:402E0000B0050020A082FF1F80B58EB000AF00237B60664B1B680133644A1360634B1B6803F00103002B00F08E80614B1B68184602F036F80346012B26D0EFF311824FF0B7
:402E4000A00383F31188BFF36F8FBFF34F8F7A613B617B693B63574B1B680133554A1360534B18683A1D0023524901F073FD0346012B04D04F4B1B68013B4E4A13603B6B15
:402E80007B637B6B83F31188494B1B68184602F007F80346012B26D0EFF311824FF0A00383F31188BFF36F8FBFF34F8FFA62FB60FB6A7B623F4B1B6801333E4A13603C4B0C
:402EC00018683A1D00233B4901F044FD0346012B04D0384B1B68013B364A13607B6ABB62BB6A83F31188324B1B68184601F0D8FF0346012B54D0EFF311824FF0A00383F3E2
:402F00001188BFF36F8FBFF34F8F3A62BB603B6ABB61284B1B680133264A1360244B18683A1D0023234901F015FD0346012B04D0204B1B68013B1F4A1360BB69FB61FB6928
:402F400083F311882CE01C4B1B683A1D3946184601F030FE0346012B04D13B6805211846FFF7A8FC144B1B683A1D3946184601F021FE0346012B04D13B6805211846FFF761
:402F800099FC0D4B1B683A1D3946184601F012FE0346012B04D13B6805211846FFF78AFC7B6818463837BD4680BD00BF4484FF1F8C82FF1FAC82FF1F9082FF1F80B596B0C7
:402FC00000AF00233B609A4B1B680133984A1360974B1B6803F00103002B00F08780954B1B68184601F05CFF0346012B26D0EFF311824FF0A00383F31188BFF36F8FBFF3B5
:403000004F8FFA61BB61FB693B658B4B1B680133894A1360874B18683A460023864901F099FC0346012B04D0834B1B68013B824A13603B6D7B657B6D83F311887D4B1B683B
:40304000184601F02DFF0346012B26D0EFF311824FF0A00383F31188BFF36F8FBFF34F8FFA647B61FB6C7B64734B1B680133724A1360704B18683A4600236F4901F06AFCB3
:403080000346012B04D06C4B1B68013B6A4A13607B6CBB64BB6C83F31188664B1B683A46391D184601F086FD0346012B04D04FF43270FFF73FFC04E07B6805211846FFF772
:4030C00019FC5C4B1B683A46391D184601F072FD0346012B04D040F2C920FFF72BFCA1E07B6805211846FFF705FC9BE0534B1B683A46391D184601F05DFD0346012B04D138
:403100007B6805211846FFF7D5FB4C4B1B68184601F0C6FE0346012B26D0EFF311824FF0A00383F31188BFF36F8FBFF34F8F3A643B613B6CBB63424B1B680133404A1360E4
:403140003E4B18683A4600233D4901F003FC0346012B04D03A4B1B68013B394A1360BB6BFB63FB6B83F31188344B1B68184601F097FE0346012B26D0EFF311824FF0A00309
:4031800083F31188BFF36F8FBFF34F8F7A63FB607B6BFB622A4B1B680133294A1360274B18683A460023264901F0D4FB0346012B04D0234B1B68013B214A1360FB6A3B6318
:4031C0003B6B83F311881D4B1B68184601F068FE0346012B26D0EFF311824FF0A00383F31188BFF36F8FBFF34F8FBA62BB60BB6A3B62134B1B680133114A13600F4B1868B3
:403200003A4600230E4901F0A5FB0346012B04D00B4B1B68013B0A4A13603B6A7B627B6A83F311883B6818465837BD4680BD00BF4884FF1F8C82FF1FAC82FF1F9082FF1F47
:40324000B082FF1F80B500AF1D4B1A681D4B1B689A4203D140F2E220FFF76CFB184B1B68184A1360184B1A68184B1B689A4203D140F2EA20FFF75EFB134B1B68134A136092
:40328000134B1A68134B1B689A4203D140F2F220FFF750FB0E4B1B680E4A13600E4B1A680E4B1B689A4203D140F2FA20FFF742FB094B1B68094A1360094B1B68184680BD7C
:4032C0009482FF1F4C84FF1F9882FF1F5084FF1F9C82FF1F5484FF1FA082FF1F5884FF1FD080FF1F80B58CB004AFF860B9603B601346FB80FB889B00184601F00FFE786151
:403300007B69002B0ED0502001F008FEF861FB69002B03D0FB697A691A6305E0786901F08FFE01E00023FB61FB69002B13D0FA8800230393FB690293FB6A0193BB6A0093BF
:403340003B68B968F86800F00FF8F86900F084F80123BB6102E04FF0FF33BB61BB6918462037BD4680BD00BF80B586B000AFF860B9607A603B60BB6A186B7B689B001A4658
:40338000A52107F0A0F9BB6A1A6B7B6803F18043013B9B0013443B613B6923F007033B6100237B6112E0BA687B6913441978BA6A7B69134434330A461A70BA687B69134470
:4033C0001B78002B06D07B6901337B617B690B2BE9D900E000BFBB6A002283F83F203B6A042B01D904233B62BB6A3A6ADA62BB6A3A6A1A64BB6A00225A64BB6A043318462C
:4034000001F07EF8BB6A1833184601F079F8BB6ABA6A1A613B6AC3F10502BB6A9A61BB6ABA6A5A62BB6A00229A64BB6A002283F84C203A68F968386901F064FE0246BB6AD5
:403440001A607B6A002B02D07B6ABA6A1A6000BF1837BD4680BD00BF80B582B000AF786001F0D0FE2A4B1B680133294A1360294B1B68002B09D1274A7B681360244B1B68EC
:40348000012B10D100F018FE0DE0234B1B68002B09D1204B1B68DA6A7B68DB6A9A4202D81C4A7B6813601D4B1B6801331B4A13607B68DB6A01229A40194B1B681343184A8F
:4034C00013607B68DA6A13469B0013449B00154A1A447B6804331946104601F01DF801F0A9FE0D4B1B68002B0ED00A4B1B68DA6A7B68DB6A9A4207D20B4B4FF080521A6064
:40350000BFF34F8FBFF36F8F00BF0837BD4680BD3485FF1F5C84FF1F4085FF1F5085FF1F3C85FF1F6084FF1F04ED00E080B584B000AF786001F066FE7B68002B02D1314B0E
:403540001B6800E07B68FB60FB680433184601F03FF80346002B15D1FB68DA6A2A4913469B0013449B000B441B68002B0AD1FB68DB6A012202FA03F3DA43244B1B68134039
:40358000224A1360FB689B6A002B04D0FB681833184601F01DF81E4B1B6801331C4A1360184B1B68FA689A420BD1FB6804331946184800F0B1FF184B1B680133164A1360D4
:4035C00009E0164B1B68013B144A1360F86800F0EFFD00F0FDFD01F02DFE114B1B68002B0CD0084B1B68FA689A4207D10D4B4FF080521A60BFF34F8FBFF36F8F00BF1037B4
:40360000BD4680BD5C84FF1F6084FF1F3C85FF1F5085FF1F0885FF1F1C85FF1F3485FF1F4085FF1F04ED00E080B586B000AF7860396000237B6100F09BFA214B1B683B61E9
:403640007B681A683B681344FB607B681A683B699A420BD97B681A68FB689A4211D9FA683B699A420DD901237B610AE07B681A68FB689A4203D8FA683B699A4201D9012328
:403680007B617B68FA681A607B69002B06D0FA683B69D31A0021184600F0ACFE00F076FAB860BB68002B07D1064B4FF080521A60BFF34F8FBFF36F8F00BF1837BD4680BD76
:4036C0003885FF1F04ED00E080B584B000AF78600023FB607B68002B08D000F049FA0021786800F087FE00F051FAF860FB68002B07D1064B4FF080521A60BFF34F8FBFF30A
:403700006F8F00BF1037BD4680BD00BF04ED00E080B586B000AF78607B683B611D4B1B683A699A4202D10023FB752DE001F06AFD3B695B69FB6001F07DFD174B1B68FA689A
:403740009A4204D0154B1B68FA689A4202D10223FB7519E0FB68124A934209D13B699B6A002B02D10323FB750EE00223FB750BE0FB680C4A934202D0FB68002B02D1042316
:40378000FB7501E00123FB75FB7D18461837BD4680BD00BF5C84FF1FEC84FF1FF084FF1F2085FF1F0885FF1F80B584B000AF786001F028FD7B68002B02D1074B1B6800E0D8
:4037C0007B68FB60FB68DB6ABB6001F033FDBB6818461037BD4680BD5C84FF1F80B586B000AF7860396000237B613B68042B01D904233B6001F006FD7B68002B02D1434B46
:403800001B6800E07B683B613B691B6CFB60FA683B689A4274D03A68FB689A420DD93B4B1B683A699A420FD0384B1B68DA6A3B689A4209D801237B6106E0344B1B683A6998
:403840009A4201D101237B613B69DB6ABB603B691A6C3B69DB6A9A4202D13B693A68DA623B693A681A643B699B69002B04DB3B68C3F105023B699A613B695969BA681346FE
:403880009B0013449B00224A1344994201D1012300E00023002B28D03B690433184600F097FE0346002B09D10122BB6802FA03F3DA43184B1B681340164A13603B69DB6A6B
:4038C00001229A40134B1B681343124A13603B69DA6A13469B0013449B000D4A1A443B6904331946104600F017FE7B69002B07D0094B4FF080521A60BFF34F8FBFF36F8FA8
:4039000001F098FC00BF1837BD4680BD5C84FF1F6084FF1F3C85FF1F04ED00E080B584B000AF786001F06EFC7B68002B02D1304B1B6800E07B68FB60FB680433184600F0D4
:4039400047FE0346002B15D1FB68DA6A294913469B0013449B000B441B68002B0AD1FB68DB6A012202FA03F3DA43234B1B681340214A1360FB689B6A002B04D0FB681833C0
:40398000184600F025FEFB68043319461B4800F0C3FD01F04FFC1A4B1B68002B05D001F031FC00F015FC01F045FC114B1B68FA689A4218D1124B1B68002B08D0114B4FF091
:4039C00080521A60BFF34F8FBFF36F8F0BE00B4B1A680D4B1B689A4203D1054B00221A6001E000F025FA00BF1037BD4680BD00BF5C84FF1F6084FF1F3C85FF1F2085FF1F6A
:403A00004085FF1F04ED00E03485FF1F80B485B000AF78600023FB607B68BB60BB685B690E4A934201D1012300E00023002B0FD0BB689B6A0A4A93420AD0BB689B6A002BFA
:403A400001D1012300E00023002B01D00123FB60FB6818461437BD4680BC70472085FF1FF484FF1F80B584B000AF78607B68FB60FB68002B39D01F4B1B68FA689A4234D083
:403A800001F0C0FBF868FFF7C1FF0346002B2AD0FB680433184600F09BFDFB68DB6A01229A40154B1B681343134A1360FB68DA6A13469B0013449B00104A1A44FB680433C9
:403AC0001946104600F028FDFB68DA6A094B1B68DB6A9A4207D30A4B4FF080521A60BFF34F8FBFF36F8F01F0A5FB00BF1037BD4680BD00BF5C84FF1F3C85FF1F6084FF1FEE
:403B000004ED00E080B584B002AF134B0193002300930023642211491148FFF7E3FB78607B68012B14D14FF0A00383F31188BFF36F8FBFF34F8F3B600A4B4FF0FF321A60EB
:403B4000094B01221A60094B00221A6001F03CFB00BF0837BD4680BD5885FF1F28A90000A94000005485FF1F4085FF1F3885FF1F80B400AF044B1B680133034A136000BF2C
:403B8000BD4680BC704700BF5C85FF1F80B584B000AF0023FB600023BB6001F033FB394B1B68013B374A1360364B1B68002B61D1354B1B68002B5DD02EE0344BDB68DB6858
:403BC000FB60FB681833184600F002FDFB680433184600F0FDFCFB68DB6A01229A402C4B1B6813432A4A1360FB68DA6A13469B0013449B00274A1A44FB6804331946104607
:403C000000F08AFCFB68DA6A234B1B68DB6A9A4202D3224B01221A601C4B1B68002BCCD1FB68002B01D000F0D3FA1D4B1B687B607B68002B10D000F04FF80346002B02D077
:403C4000164B01221A607B68013B7B607B68002BF1D1134B00221A60104B1B68002B09D00123BB600F4B4FF080521A60BFF34F8FBFF36F8F01F0DEFABB6818461037BD46A8
:403C800080BD00BF5C85FF1F3485FF1FF484FF1F3C85FF1F6084FF1F5C84FF1F4885FF1F4485FF1F04ED00E080B483B000AF044B1B687B607B6818460C37BD4680BC7047DD
:403CC0003885FF1F80B400AF024B1B681846BD4680BC70473485FF1F80B586B000AF00237B61484B1B68002B7CD1474B1B6801333B61454A3B6913603B69002B10D1434B9B
:403D00001B68FB60424B1B68404A1360404AFB681360404B1B6801333E4A136000F058FA3D4B1B683A699A424DD3384B1B681B68002B01D1012300E00023002B04D0364BE2
:403D40004FF0FF321A603EE0304B1B68DB68DB68BB60BB685B687B603A697B689A4203D22D4A7B6813602EE0BB680433184600F02FFCBB689B6A002B04D0BB681833184603
:403D800000F026FCBB68DB6A01229A40234B1B681343224A1360BB68DA6A13469B0013449B001F4A1A44BB6804331946104600F0B3FBBB68DA6A1B4B1B68DB6A9A42B4D3AD
:403DC00001237B61B1E7174B1B68DA6A144913469B0013449B000B441B68012B07D901237B6104E0104B1B6801330F4A13600F4B1B68002B01D001237B617B6918461837B5
:403E0000BD4680BD5C85FF1F3885FF1FEC84FF1FF084FF1F4C85FF1F5485FF1F3C85FF1F6084FF1F5C84FF1F4485FF1F4885FF1F80B586B000AF2F4B1B68002B03D02E4B23
:403E400001221A6051E02C4B00221A602B4B1B681B6B7B614FF0A5333B617B691A683B699A4211D17B6904331A683B699A420BD17B6908331A683B699A4205D17B690C3378
:403E80001A683B699A4208D01C4B1A681B4B1B6834331946104601F0EFFB194B1B687B607B68B3FA83F3FB70FB78C3F11F03FB60FA6813469B0013449B00124A1344BB6072
:403EC000BB685B685A68BB685A60BB685A68BB6808339A4204D1BB685B685A68BB685A60BB685B68DB68054A136000BF1837BD4680BD00BF5C85FF1F4885FF1F5C84FF1FE4
:403F00003C85FF1F6084FF1F80B582B000AF78603960074B1B6818331946786800F020FB0121386800F066FA00BF0837BD4680BD5C84FF1F80B584B000AF78607B68DB684B
:403F4000DB68BB60BB681833184600F041FB1D4B1B68002B1CD1BB680433184600F038FBBB68DB6A01229A40174B1B681343164A1360BB68DA6A13469B0013449B00134AF0
:403F80001A44BB6804331946104600F0C5FA05E0BB68183319460E4800F0BEFABB68DA6A0C4B1B68DB6A9A4205D90123FB600A4B01221A6001E00023FB60FB68184610371D
:403FC000BD4680BD5C85FF1F3C85FF1F6084FF1FF484FF1F5C84FF1F4885FF1F80B483B000AF7860064B1A687B681A60054B1A687B685A6000BF0C37BD4680BC704700BFDE
:404000004C85FF1F3885FF1F80B584B000AF7860396001F0F7F81C4B1B68BB603B681B68B3F1FF3F02D10023FB6026E07B681A68164B1B689A4207D07B685A68BB689A4249
:4040400002D80123FB6018E07B685B68BA68D21A3B681B689A420ED23B681A687B685968BB68CB1A1A443B681A607868FFF7B6FF0023FB6001E00123FB6001F0DBF8FB687D
:4040800018461037BD4680BD3885FF1F4C85FF1F80B400AF034B01221A6000BFBD4680BC704700BF4885FF1F80B582B000AF786000F042F8FCE700BF80B582B000AF002331
:4040C0007B600CE07A6813469B0013449B00124A1344184600F0F4F97B6801337B607B68042BEFD90D4800F0EBF90D4800F0E8F90C4800F0E5F90C4800F0E2F90B4800F0A4
:40410000DFF90B4B054A1A600A4B054A1A6000BF0837BD4680BD00BF6084FF1FC484FF1FD884FF1FF484FF1F0885FF1F2085FF1FEC84FF1FF084FF1F80B582B000AF28E049
:40414000FFF716FD174B1B68002B0CBF01230023DBB27B60FFF71AFD7B68002B19D101F051F8104BDB68DB683B603B680433184600F02EFA0C4B1B68013B0B4A13600B4B6D
:404180001B68013B094A136001F054F8386800F00FF8064B1B68002BD2D100BF0837BD4680BD00BF0885FF1F3485FF1F1C85FF1F80B582B000AF78607B681B6B184600F021
:4041C0003FFF786800F03CFF00BF0837BD4680BD80B483B000AF0E4B1B681B68002B01D1012300E00023002B04D00A4B4FF0FF321A6008E0064B1B68DB68DB687B607B6861
:404200005B68044A136000BF0C37BD4680BC7047EC84FF1F5485FF1F80B584B000AF78607B68FB607B68002B62D0FB68DA6A324B1B68DB6A9A425BD2FB689B69002B06DBA7
:404240002D4B1B68DB6AC3F10502FB689A61FB685969FB68DA6A13469B0013449B00274A1344994201D1012300E00023002B3AD0FB680433184600F0ABF90346002B15D17C
:40428000FB68DA6A1D4913469B0013449B000B441B68002B0AD1FB68DB6A012202FA03F3DA43174B1B681340154A1360124B1B68DA6AFB68DA62FB68DB6A01229A40104B8C
:4042C0001B6813430E4A1360FB68DA6A13469B0013449B00094A1A44FB6804331946104600F01AF904E0044B1B68DA6AFB68DA6200BF1037BD4680BD5C84FF1F6084FF1FAB
:404300003C85FF1F80B584B000AF78607B68BB600023FB607B68002B4FD0BB685B6C5A1EBB685A64BB68DA6ABB681B6C9A4244D0BB685B6C002B40D1BB680433184600F0F3
:4043400047F90346002B15D1BB68DA6A1D4913469B0013449B000B441B68002B0AD1BB68DB6A012202FA03F3DA43174B1B681340154A1360BB681A6CBB68DA62BB68DB6A04
:40438000C3F10502BB689A61BB68DB6A01229A400D4B1B6813430C4A1360BB68DA6A13469B0013449B00074A1A44BB6804331946104600F0B1F80123FB60FB68184610379A
:4043C000BD4680BD6084FF1F3C85FF1F80B400AF074B1B68002B04D0054B1B685A6C01325A64034B1B681846BD4680BC704700BF5C84FF1F80B584B000AF78603960294B7C
:404400001B68FB60284B1B680433184600F0E0F80346002B0BD1244B1B68DB6A012202FA03F3DA43214B1B681340204A13607B68B3F1FF3F0AD13B68002B07D01A4B1B6846
:40444000043319461A4800F067F826E0FA687B681344BB60144B1B68BA685A60BA68FB689A4209D2134B1A680F4B1B6804331946104600F075F810E00F4B1A680A4B1B6894
:4044800004331946104600F06BF80C4B1B68BA689A4202D2094ABB68136000BF1037BD4680BD00BF3885FF1F5C84FF1F3C85FF1F2085FF1FF084FF1FEC84FF1F5485FF1F91
:4044C00080B483B000AF78607B6803F108027B685A607B684FF0FF329A607B6803F108027B68DA607B6803F108027B681A617B6800221A6000BF0C37BD4680BC704700BF90
:4045000080B483B000AF78607B6800221A6100BF0C37BD4680BC704780B485B000AF786039607B685B68FB603B68FA685A60FB689A683B689A60FB689B683A685A60FB68A5
:404540003A689A603B687A681A617B681B685A1C7B681A6000BF1437BD4680BC704700BF80B485B000AF786039603B681B68BB60BB68B3F1FF3F03D17B681B69FB600CE056
:404580007B680833FB6002E0FB685B68FB60FB685B681A68BB689A42F6D9FB685A683B685A603B685B683A689A603B68FA689A60FB683A685A603B687A681A617B681B6801
:4045C0005A1C7B681A6000BF1437BD4680BC704780B485B000AF78607B681B69FB607B685B687A6892689A607B689B687A6852685A60FB685A687B689A4203D17B689A68E1
:40460000FB685A607B6800221A61FB681B685A1EFB681A60FB681B6818461437BD4680BC704700BF80B584B000AF786039607B68FB6000F0E7FDFB681A68FB68DB6BF968D4
:40464000096C01FB03F31A44FB685A60FB6800229A63FB681A68FB689A60FB681A68FB68DB6B013BF968096C01FB03F31A44FB68DA60FB68FF2283F84420FB68FF2283F8A5
:4046800045203B68002B14D1FB681B69002B1AD0FB6810331846FFF74DFC0346002B12D00C4B4FF080521A60BFF34F8FBFF36F8F09E0FB6810331846FFF702FFFB6824338D
:4046C0001846FFF7FDFE00F0B5FD012318461037BD4680BD04ED00E080B58AB002AFF860B9601346FB71BB68002B02D10023FB6104E0FB68BA6802FB03F3FB61FB69483362
:40470000184600F00BFCB861BB69002B0BD0BB6948337B61FA79BB69009313467A69B968F86800F005F8BB6918462037BD4680BD80B584B000AFF860B9607A60FB70BB6888
:40474000002B03D1BB69BA691A6002E0BB697A681A60BB69FA68DA63BB69BA681A640121B869FFF75FFF00BF1037BD4680BD00BF80B582B000AF78607B68002B0ED07B6837
:4047800000225A607B6800221A607B680022DA60002300220021786800F032F800BF0837BD4680BD80B586B000AF0346FB7101237B6100233B61FB791A4639697869FFF7E6
:4047C0008BFFF860F868FFF7D3FFFB6818461837BD4680BD80B584B000AF78603960022200217868FFF778FFF860FB68002B02D0FB683A689A63FB6818461037BD4680BD42
:4048000080B58AB000AFF860B9607A603B6000237B62FB683B6200F0F5FC3B6A9A6B3B6ADB6B9A4202D33B68022B29D13A68B968386A00F025FAF8613B6A5B6A002B10D041
:404840003B6A24331846FFF775FB0346002B13D03F4B4FF080521A60BFF34F8FBFF36F8F0AE0FB69002B07D0394B4FF080521A60BFF34F8FBFF36F8F00F0DCFC012363E0FE
:404880007B68002B03D100F0D5FC00235CE07B6A002B06D107F114031846FFF79FFB01237B6200F0C7FCFFF763F900F0ABFC3B6A93F844305BB2B3F1FF3F03D13B6A002247
:4048C00083F844203B6A93F845305BB2B3F1FF3F03D13B6A002283F8452000F0ABFC3A1D07F1140311461846FFF78EFB0346002B24D1386A00F0BCFA0346002B18D03B6AE7
:4049000010337A6811461846FFF7FEFA386A00F047FAFFF73BF90346002B7FF47CAF0C4B4FF080521A60BFF34F8FBFF36F8F72E7386A00F035FAFFF729F96CE7386A00F067
:404940002FFAFFF723F9002318462837BD4680BD04ED00E080B58CB000AFF860B9607A603B60FB68BB62EFF311824FF0A00383F31188BFF36F8FBFF34F8FBA617B61BB69C4
:404980003B62BB6A9A6BBB6ADB6B9A4202D33B68022B2AD1BB6A93F84530FB773A68B968B86A00F06DF997F91F30B3F1FF3F12D1BB6A5B6A002B15D0BB6A24331846FFF709
:4049C000B9FA0346002B0DD07B68002B0AD07B6801221A6006E0FB7F0133DBB25AB2BB6A83F845200123FB6201E00023FB623B6A7B627B6A83F31188FB6A18463037BD4694
:404A000080BD00BF80B58AB000AFF860B9607A603B6000237B62FB683B6200F0F3FB3B6A9B6BFB61FB69002B46D03B6ADB68BB61B968386A00F08EF93B68002B21D1FB698A
:404A40005A1E3B6A9A633B6A1B68002B04D1FFF7BDFC02463B6A5A603B6A1B69002B27D03B6A10331846FFF765FA0346002B1FD04F4B4FF080521A60BFF34F8FBFF36F8FF0
:404A800016E03B6ABA69DA603B6A5B6A002B0FD03B6A24331846FFF74DFA0346002B07D0434B4FF080521A60BFF34F8FBFF36F8F00F0C0FB012377E07B68002B03D100F057
:404AC000B9FB002370E07B6A002B06D107F110031846FFF783FA01237B6200F0ABFBFFF747F800F08FFB3B6A93F844305BB2B3F1FF3F03D13B6A002283F844203B6A93F849
:404B000045305BB2B3F1FF3F03D13B6A002283F8452000F08FFB3A1D07F1100311461846FFF772FA0346002B31D1386A00F08AF90346002B25D03B6A1B68002B08D100F093
:404B400061FB3B6A5B681846FFF766FB00F072FB3B6A24337A6811461846FFF7D5F9386A00F01EF9FFF712F80346002B7FF455AF0F4B4FF080521A60BFF34F8FBFF36F8F4F
:404B80004BE7386A00F00CF9FFF700F845E7386A00F006F9FEF7FAFF386A00F053F90346002B3FF43AAF002318462837BD4680BD04ED00E080B58CB000AFF860B9607A60C9
:404BC000FB68BB62EFF311824FF0A00383F31188BFF36F8FBFF34F8F7A613B617B693B62BB6A9B6BFB61FB69002B2DD0BB6A93F84430FB76B968B86A00F0ACF8FB695A1E3C
:404C0000BB6A9A6397F91B30B3F1FF3F12D1BB6A1B69002B15D0BB6A10331846FFF78AF90346002B0DD07B68002B0AD07B6801221A6006E0FB7E0133DBB25AB2BB6A83F835
:404C400044200123FB6201E00023FB623B6A7B627B6A83F31188FB6A18463037BD4680BD80B584B000AF786000F0CCFA7B689B6BFB6000F0DFFAFB6818461037BD4680BD13
:404C800080B586B000AFF860B9607A6000237B61FB689B6B3B61FB681B6C002B0DD1FB681B68002B4DD1FB685B681846FFF72AFB7861FB6800225A6043E07B68002B19D197
:404CC000FB689868FB681B6C1A46B96805F0F0FCFB689A68FB681B6C1A44FB689A60FB689A68FB685B689A422BD3FB681A68FB689A6026E0FB68D868FB681B6C1A46B96840
:404D000005F0D6FCFB68DA68FB681B6C5B421A44FB68DA60FB68DA68FB681B689A4207D2FB685A68FB681B6C5B421A44FB68DA607B68022B05D13B69002B02D03B69013B37
:404D40003B613B695A1CFB689A637B6918461837BD4680BD80B582B000AF786039607B681B6C002B18D07B68DA687B681B6C1A447B68DA607B68DA687B685B689A4203D3C1
:404D80007B681A687B68DA607B68D9687B681B6C1A46386805F08CFC00BF0837BD4680BD80B584B000AF786000F02CFA7B6893F84530FB7311E07B685B6A002B12D07B6848
:404DC00024331846FFF7B6F80346002B01D0FFF75FF9FB7B013BDBB2FB7397F90F30002BE9DC00E000BF7B68FF2283F8452000F021FA00F007FA7B6893F84430BB7311E0DB
:404E00007B681B69002B12D07B6810331846FFF791F80346002B01D0FFF73AF9BB7B013BDBB2BB7397F90E30002BE9DC00E000BF7B68FF2283F8442000F0FCF900BF103735
:404E4000BD4680BD80B584B000AF786000F0DAF97B689B6B002B02D10123FB6001E00023FB6000F0E7F9FB6818461037BD4680BD80B584B000AF786000F0C4F97B689A6BDD
:404E80007B68DB6B9A4202D10123FB6001E00023FB6000F0CFF9FB6818461037BD4680BD80B485B000AF78607B689A6B7B68DB6B9A4202D10123FB6001E00023FB60FB684B
:404EC00018461437BD4680BC704700BF80B485B000AF786039600023FB6014E00E4AFB6852F83330002B0BD10B49FB683A6841F83320094AFB68DB0013447A685A6005E09C
:404F0000FB680133FB60FB68092BE7D900BF1437BD4680BC704700BFBC05002080B588B000AF786000237B61FEF722FE404B1B68002B04D100F0BEF83D4B01221A607B68C4
:404F4000002B0ED008231A467B6813447B607B6803F00703002B04D07B6823F0070308337B607B68002B57D07B6847F6F772934252D8304BBB612F4B1B68FB6104E0FB699E
:404F8000BB61FB691B68FB61FB695A687B689A4203D2FB691B68002BF1D1FB69264A93423AD0BB691B68082213447B61FB691A68BB691A60FB695A687B68D31A0822520057
:404FC000934222D9FA697B681344FB60FB695A687B68D21AFB685A60FB697A685A60FB685B68BB60134B3B6102E03B691B683B613B691B685A68BB689A42F6D33B691A6820
:40500000FB681A603B69FA681A600C4B1A68FB695B68D31A094A1360FEF7B8FD7B69002B01D100F03DFB7B6918462037BD4680BD700500206005002068050020D480FF1FBB
:4050400080B586B000AF78607B683B617B68002B27D008235B423A6913443B613B69FB60FEF786FDFB685B68BB60104B7B6102E07B691B687B617B691B685A68BB689A4220
:40508000F6D37B691A68FB681A607B69FA681A60FB685A68064B1B681344054A1360FEF775FD00BF1837BD4680BD00BF60050020D480FF1F80B483B000AF0F4B23F007031A
:4050C0007B600E4A7B6813600C4B00225A600C4B47F6F8725A600A4B00221A607B683B603B6847F6F8725A603B68054A1A6000BF0C37BD4680BC70476885FF1F60050020D5
:405100006805002080B485B000AFF860B9607A60FB68043BFB60FB684FF080721A60FB68043BFB60BB6823F00102FB681A60FB68043BFB60084AFB681A60FB68143BFB6028
:405140007A68FB681A60FB68203BFB60FB6818461437BD4680BC70475D51000080B483B000AF4FF0A00383F31188BFF36F8FBFF34F8F7B60FEE700BF0000000000000000E1
:40518000074B19680868B0E8F00F80F30988BFF36F8F4FF0000080F311884EF00D0E70475C84FF1F00BF00BF06480068006880F3088862B661B6BFF34F8FBFF36F8F00DF1B
:4051C00000BF00BF08ED00E080B500AF0B4A0B4B1B6843F460031360084A084B1B6843F06043136000F088F8054B00221A60FFF7DBFFFFF7B3FF0023184680BD20ED00E04D
:40520000D880FF1F80B483B000AF4FF0A00383F31188BFF36F8FBFF34F8F7B60044B1B680133034A136000BF0C37BD4680BC7047D880FF1F80B483B000AF094B1B68013B79
:40524000074A1360064B1B68002B04D100237B607B6883F3118800BF0C37BD4680BC7047D880FF1F000000000000000000000000EFF30980BFF36F8F0D4B1A6820E9F00F3B
:4052800010602DE908404FF0A00080F31188FEF7CFFD4FF0000080F31188BDE8084019680868B0E8F00F80F30988BFF36F8F70475C84FF1F00BF00BF80B582B000AF4FF078
:4052C000A00383F31188BFF36F8FBFF34F8F3B60FEF702FD0346002B03D0064B4FF080521A6000237B607B6883F3118800BF0837BD4680BD04ED00E080B400AF054B4EF694
:405300005F221A60044B07221A6000BFBD4680BC704700BF14E000E010E000E080B500AFFFF770FF01F0ECFE054801F09BFE04F033F8044803F0E2FFFFF77CFF00BF80BDC1
:40534000495300007153000080B500AFFDF75CFD0346002B07D0054B4FF080521A60BFF34F8FBFF36F8F00BF80BD00BF04ED00E080B500AFFDF722FE0346002B07D0054B17
:405380004FF080521A60BFF34F8FBFF36F8F00BF80BD00BF04ED00E080B582B002AF00F03FF80220FBF77CFAFBF7E8FBFBF76EFFFCF760F90020FCF743FB0020FCF7E6FD06
:4053C0000020FDF76BF90220FAF75CFEFAF724FF0120FBF711F90220FCF7DEFA012001F0FBF803224FF461410120FBF767FEFDF7DDF9002301930323009300234FF47A7297
:4054000005490648FDF76EFF00F0ECFA0320FCF775F8FEF777FBFEE730A90000C154000080B500AF0B4B0C4ADA620A4B0B4A9A63084B0B4ADA6301F0A5FB00F043F901F0D6
:405440003FFD03F089FE04F027F804F02BF900BF80BD00BF0080FF1F8151000071520000B952000080B485B000AF78600B46FB707B68FB60FB681B68591CFA681160FA78C8
:405480001A7000BF1437BD4680BC70470EB480B585B000AF786007F12003FB60391DFB68FA69064800F030FC7B6800221A7000BF1437BD46BDE8804003B07047655400008F
:4054C00080B5A6B000AF78600023BB600023A7F896300023C7F890300023C7F88C30FEF7E3FB0346BB6007F1080341F288311846FEF79AF8FBF7FAFA0346012B05D0B7F8AA
:40550000963043F00103A7F89630FBF7A3FD0346012B05D0B7F8963043F00203A7F89630FBF7B8FF0346012B05D0B7F8963043F00403A7F89630FCF763F80346012B05D07C
:40554000B7F8963043F00803A7F89630FCF7E6F90346012B05D0B7F8963043F01003A7F89630FCF7EDFC0346012B05D0B7F8963043F02003A7F89630FDF75EF80346012BC2
:4055800005D0B7F8963043F04003A7F89630FDF7E3F80346012B05D0B7F8963043F08003A7F89630FAF718FE0346012B05D0B7F8963043F48073A7F89630FAF7FDFF034692
:4055C000012B05D0B7F8963043F40073A7F89630FBF738F90346012B05D0B7F8963043F48063A7F89630FBF739FE0346012B05D0B7F8963043F40063A7F89630FDF722FECA
:405600000346012B05D0B7F8963043F48053A7F89630B7F89630002B16D1144B1B881B01C7F88C30D7F89020531CC7F8903007F10C00D7F88C300E49FFF728FF07F10C03A5
:40564000184600F09DFF4EE7D7F89020531CC7F89030B7F8963007F10C000649FFF716FF07F10C03184600F08BFF3CE78005002048A9000064A9000080B485B000AF786036
:4056800039604FF0A00383F31188BFF36F8FBFF34F8FFB6000BF1437BD4680BC704700BF80B483B000AF4FF0A00383F31188BFF36F8FBFF34F8F7B6000BF0C37BD4680BCA3
:4056C000704700BF80B483B000AF00237B6007E0074A7B68134400221A707B6801337B607B68032BF4DD00BF0C37BD4680BC70477405002080B582B000AF78603960FFF720
:4057000081FD7B68032B1DD801A252F823F000BF215700004557000045570000335700003B68DBB203F00103DBB2184601F0F6FA09E03B68DBB203F00103DBB2184601F00D
:40574000EDFA00E000BFFFF775FD7B68032B09D83B68DBB203F00103D9B2044A7B6813440A461A7000BF0837BD4680BD7405002080B582B000AF78607B68032B0DD8094A27
:405780007B6813441B78DBB2002B0CBF01230023DBB219467868FFF7ADFF00BF0837BD4680BD00BF7405002080B582B000AF78603960002201213868FEF78EFF0246134BBB
:4057C0001A6001F071FB124801F020FB002201213868FEF781FF02460E4B1A6001F00AFB0D4801F0B9FA002001F062FA094B1B68002B05D0054B1B68002B01D0012300E0F2
:40580000002318460837BD4680BD00BF7C050020A5580000780500203559000080B586B000AFF860B9607A6000237B61084B186800237A68B968FFF7E5F80346012B01D169
:4058400001237B617B6918461837BD4680BD00BF7C05002080B586B000AFF8600B467A60FB7200237B610E4B186807F10B0100237A68FEF7C5FF0346012B02D101237B610B
:4058800001E000237B61FFF7BDFC032001F010FAFFF7D0FC7B6918461837BD4680BD00BF7805002080B586B000AF00237B600023FB700023BB7000237B6101F0C5F9034661
:4058C000FB70FB78DBB203F02003002B1ED001F0CDF903465BB2BB70EFF311824FF0A00383F31188BFF36F8FBFF34F8FFA60BB60FB687B610D4B18683A1DB91C0023FFF75F
:4059000029F87B693B613B6983F311887B68002B07D0074B4FF080521A60BFF34F8FBFF36F8F00BF1837BD4680BD00BF7C05002004ED00E080B586B000AF00237B60002357
:40594000FB700023BB7000237B6101F0C1F90346FB70FB78DBB203F00103002B05D1FB78DBB203F00203002B29D0EFF311824FF0A00383F31188BFF36F8FBFF34F8FFA60FC
:40598000BB60FB687B61154B1B683A1DB91C1846FFF710F90346012B09D197F90230DBB2184601F0A1F9012001F082F902E0002001F07EF97B693B613B6983F311887B688D
:4059C000002B07D0064B4FF080521A60BFF34F8FBFF36F8F00BF1837BD4680BD7805002004ED00E080B500AF024803F099FD00BF80BD00BFF959000080B582B000AF03F000
:405A000095FE0346FB80134B1B88042B14D9124B1A88FB88D31ABB80104B1B88BA889A4210D90E4ABB8813800C4B1B88A3F6B8339AB20B4B1A8005E0064B1B8801339AB202
:405A4000044B1A80044AFB88138000BF0837BD4680BD00BF8205002084050020860500208005002080B485B000AF786050E07B6893F87B30082B0FD0102B19D0022B23D1AC
:405A80007B681B68DBB203F00103FB737B681B685A087B681A602DE07B681B68DBB203F00703FB737B681B68DA087B681A6021E07B681B68DBB203F00F03FB737B681B688C
:405AC0001A097B681A6015E07B681968184BA3FB0123DA0813469B0013445B00CA1A1346FB737B681B68124AA2FB0323DA087B681A6000BF7B689B68591E7A689160FA7B4D
:405B00000C498A5C1A707B681B6A5A1C7B681A627B685B6A591E7A685162002BA7DC7B681B68002BA3D100BF1437BD4680BC7047CDCCCCCC98A900002DE9B04384B000AF9E
:405B4000786067E07B6893F87B30082B14D0102B24D0022B36D17B68D3E90023D3B203F00103FB737B68D3E900235B084FEA32027968C1E900233FE07B68D3E90023D3B221
:405B800003F00703FB737B68D3E90023D40844EA4374DD087B68C3E900452DE07B68D3E90023D3B203F00F03FB737B68D3E900234FEA121848EA03784FEA13197B68C3E9B1
:405BC000008919E07B68D3E900014FF00A024FF0000304F075FB1346FB737B68D3E900014FF00A024FF0000304F06AFB02460B467968C1E9002300BF7B689B68591E7A6800
:405C00009160FA7B0C498A5C1A707B681B6A5A1C7B681A627B685B6A591E7A685162002B90DC7B68D3E9002313438BD100BF1037BD46BDE8B08300BF98A9000080B485B0F3
:405C400000AF78607B68FB6002E0FB680133FB60FB681B78002BF8D1FA687B68D31A18461437BD4680BC704780B588B000AFF860B9607A603B600023FB610023BB611BE015
:405C8000BB697A6813441B78FB75BB6A002B08D0FB7D602B05D9FB7D7A2B02D8FB7D203BFB75FA7DFB681146B8689847FB690133FB61BB690133BB61BA693B689A42DFDB4D
:405CC000FB6918462037BD4680BD00BF80B586B000AFF860B9603B601346FB7100237B6107E0FA79FB681146B86898477B6901337B613B685A1E3A60002BF2DC7B691846AB
:405D00001837BD4680BD00BF2DE9B043A8B002AFF860B9607A603B600023FB63002387F88D3000F021BC7B685A1C7A601B7887F8933097F893301F2B03D997F893307A2BF9
:405D400003D90023C7F8943008E097F89330203BC34AD35C03F00F03C7F89430D7F89430DB0097F88D201344BD4AD35C1B09DBB287F88D3097F88D30013B062B10D801A2E0
:405D800052F823F0B55D0000815E0000D15D000069650000FD5D0000315E0000095F000097F89320FB681146B8689847FB6B0133FB63D9E300237B637B6BBB63BB6B7B648F
:405DC0007B6C3B633B6B3B64202387F88C30CBE397F893302A2B05D13B681A1D3A601B68BB63C1E3BA6B13469B0013445B001A4697F89330303B1344BB63B5E33B6C43F0A8
:405E000004033B6497F893302A2B05D13B681A1D3A601B687B63A7E37A6B13469B0013445B001A4697F89330303B13447B639BE397F893306C2B0BD07A2B00D01FE03B6CA6
:405E400023F003033B643B6C43F002033B6416E03B6C03F00303012B08D13B6C23F003033B643B6C43F003033B6407E03B6C23F003033B643B6C43F001033B6400BF73E39B
:405E800097F89330203B102B3CD801A252F823F0E75E0000055F0000055F0000F15E0000055F0000055F0000055F0000055F0000055F0000055F0000055F0000FB5E000075
:405EC000055F0000D55E0000055F0000055F0000DF5E00003B6C43F008033B6413E0302387F88C300FE03B6C43F010033B640AE03B6C43F020033B6405E03B6C43F04003FE
:405F00003B6400E000BF2FE397F89330423B362B70D801A252F823F0DF62000009610000F55F0000F55F0000F55F0000F55F0000F55F0000F55F0000F55F0000F55F00004E
:405F4000F55F0000F55F0000F55F0000F55F0000FB5F0000F55F0000F55F0000DF600000F55F0000F55F0000F55F0000F55F00008B600000F55F0000F55F0000F55F000059
:405F8000F55F0000F55F0000F55F0000F55F0000F55F0000F55F00003360000011610000BF600000F55F00002D610000F55F0000F55F0000BF600000F55F0000F55F000074
:405FC000F55F0000F55F0000F55F00006560000003600000F55F0000F55F0000E7600000F55F0000CF600000F55F0000F55F00009360000000233B6388E13B6C43F08003E9
:406000003B643B6C23F003033B643B6C43F4007343F002033B64102387F88B3008237B632D2387F848303E2387F8493002237B646CE13B6C43F400733B64022387F88B3084
:406040003B6C03F02003002B00F05B81302387F84830622387F8493002237B6451E100BFACA900003B6C43F400733B64082387F88B303B6C03F02003002B00F04481302316
:4060800087F8483001237B643DE13B6C43F080033B643B6C43F400733B64102387F88B303B6C03F02003002B00F02F81302387F84830782387F8493002237B6425E13B6C59
:4060C00043F440733B640A2387F88B301EE13B6C43F400733B640A2387F88B3016E13B6C43F080033B643B681A1D3A601B68BB61BB69002B01D1A94BBB61BB691846FFF7AB
:406100009DFD03463B6301E13B6C43F080033B6407F110033A33BB613B681A1D3A601B68DBB287F84A3001233B63EFE03B6C03F00403002B01D106237B633B68073323F0C9
:40614000070303F108023A60D3E90023C7E908234FF00002924BC7E904230023C7F894300FE0D7E904014FF000028E4B03F018FF02460B46C7E90423D7F894300133C7F85A
:4061800094307A6BD7F894309A42EADCD7E908014FF000024FF0000304F04AF80346002B31D03B6C43F480633B64D7E90801D7E9042303F017FC02460B46C7E90823D7E9C0
:4061C00008231046194604F093F802460B46C7E90A23D7E90889D7E90A231046194603F087FD02460B464046494603F0FBFB02460B46C7E90823D7E90823144683F0004558
:40620000C7E9084525E0D7E90801D7E9042303F0EBFB02460B46C7E90823D7E908231046194604F065F802460B46C7E90A23D7E90889D7E90A231046194603F051FD02467C
:406240000B464046494603F0CDFB02460B46C7E908230023C7F894300FE0D7E908014FF00002504B03F072FD02460B46C7E90823D7F894300133C7F894307A6BD7F89430B7
:406280009A42EADCD7E908231046194603F0F8FF03463B6107F110033A334033BB610A2387F88B307B6B002B0CD007F110031846FFF7D8FBBB695A1EBA612E221A703B6B09
:4062C00001333B633B6C43F4D85343F003033B6400237B63D7E90A23C7E9042316E03B681A1D3A601B68002B02D02F4BBB6101E02E4BBB61BB691846FFF7A0FC03463B6335
:4063000004E000BF02E000BF00E000BF3B6C03F40073002B00F0D9807B6B002B01D101237B633B6C03F40063002B4DD13B6C03F00303032B48D801A252F823F07B630000FA
:40634000596300004D630000B16300003B681A1D3A601B683B6137E03B6C03F48073002B05D03B681A1D3A601B683B612CE03B681A1D3A601B683B6126E03B6C03F4807399
:40638000002B05D03B681A1D3A601B683B611BE03B681A1D3A601B683B6115E080A900000000E03F0000244088A9000090A900003B68073323F0070303F108023A60D3E963
:4063C0000023C7E9042300BF3B6C03F02003002B04D03B69002B01D100237B643B6C03F48073002B2FD03B6C03F00303032B11D1D7E90423002A73F1000315DAD7E90423CC
:40640000524263EB4303C7E904233B6C43F480633B6409E03B69002B06DA3B695B423B613B6C43F480633B643B6C03F48063002B09D13B6C03F01003002B04D0202387F834
:40644000483001237B643B6C03F48053002B04D107F110033A334033BB613B6C03F00303032B05D107F110031846FFF765FB04E007F110031846FFF7F5FABB690133BB6120
:406480003B6C03F48863002B28D03B6C03F48063002B01D02D2300E02B2387F8933097F88C30302B06D101237B6497F8933087F8483013E0BB69013BBB61BB6997F8932055
:4064C0001A703B6B01333B6308E0BB6B002B05D03A6BBB6B9A4201DDBB6B3B63BA6B396B7B6C0B44D31ABB63796C3B6C03F0800307F11002383200930B46B968F868FFF768
:40650000B3FB0246FB6B1344FB633B6C03F00803002B0AD197F88C20BB6BB968F868FFF7D5FB0246FB6B1344FB63BA69396B3B6C03F0800300930B46B968F868FFF794FBC6
:406540000246FB6B1344FB633B6C03F00803002B0AD097F88C20BB6BB968F868FFF7B6FB0246FB6B1344FB637B681B78002B7FF4DAABFB6B18469837BD46BDE8B08300BF5C
:4065800080B582B000AF786000F06AFF0346002B1CD0104B186800234FF0FF320021FEF731FA03E064231846FDF78EF801F0BEF90346002BF6D0786801F04AF9054B18687D
:4065C000002300220021FEF71BF900E000BF0837BD4680BD0C06002080B584B002AF78600120FEF7DFF80246074B1A60002301937B6800930023642204490548FCF772FE16
:4066000000BF0837BD4680BD0C06002010AA00001566000080B582B000AF78600121002000F07AFD00F028FF0346002B06D000F017FF0346002B01D001F0A0F800F010FFEA
:406640000346002B04D041F288331846FDF73CF864231846FDF738F8E4E700BF80B582B000AF786039603A680021786804F02BF800BF0837BD4680BD80B584B000AFF860DC
:40668000B9607A607A68B968F86804F011F800BF1037BD4680BD00BF80B483B000AF0346FB71FEE780B487B000AF7860396000233B6100237B6127E07B699B007A681344CA
:4066C0001B68BB60BB68FB73BB6823F0FF03BB6014E03B695B003A6813441B781A46BB68134419463B695B003A6813445B780B703B6901333B61FB7B013BFB73FB7B002BE5
:40670000E7D17B6901337B617B691E2BD4D900BF1C37BD4680BC704780B582B000AF494B1B78BB70484B3B221A80484B18221A70474B81221A80474B18221A7004224649A8
:406740004648FFF799FF464B06221A70454BF3221A703C4B03221A70434B84221A70434B05221A70424B7B6006E04FF4F07003F0E7F87B68013B7B607B68002B06D03B4B31
:406780001B78DBB203F02003002BEED02D4ABB781370384B52221A70374B384A1278D2B21A70374B40F214721A80364B41F251221A800023FB7019237B6014E0FB785B0074
:4067C000DAB2314B1B78DBB203F00103DBB21343DBB203F00303FB704FF4F07003F0B0F87B68013B7B607B68002B02D0FB78032BE4D17B68002B02D10320FFF74DFF234B84
:406800004FF480721A80214B07221A70204B00221A70204B48221A701C4B00221A701E4B00221A701D4B02221A701D4A1C4B1B78DBB243F00303DBB2137000BF0837BD467E
:4068400080BD00BF98460040804000408240004084400040864000403006004800410040004300400A4300400943004008430040A086010000420040A14600400F010049A3
:406880002242004020420040254200400440004006400040084000400940004001400040A243004080B483B000AF0B4B1B78FB710A4AFB7903F00703DBB21370084AFB7924
:4068C0001B09DBB21370074B44221A7000BF0C37BD4680BC704700BFCF0100496E5800406F5800407658004080B586B000AF72B60023FB7513E0FA7D13465B0013445B0092
:40690000414A13443B613B691A683B699B889BB219461046FFF7A2FEFB7D0133FB75FB7D092BE8D90023FB751CE0FA7D13469B0013445B00354A1344FB60FB681B68BB60ED
:40694000FB685B687B60FB681A7A5B7A1B0213437B807B881A467968B868FFF78DFEFB7D0133FB75FB7D002BDFD029494FF09040FFF798FE274A274B1B78DBB243F0020341
:40698000DBB21370244A244B1B78DBB243F00203DBB21370214A214B1B78DBB243F04003DBB213701E4A1E4B1B78DBB243F01003DBB213700A221B491B48FFF75DFE082250
:4069C0001A491B48FFF758FE08221A491A48FFF753FE1A4A194B1B78DBB243F00803DBB21370174B61221A70FFF796FE144B01221A70FFF757FF0E2208491248FFF73CFEBD
:406A000000BF1837BD4680BD1CAA000058AA00007C0000480350014013500140A0430040C243004014060048F05100402006004812510040280600486251004022430040DA
:406A400000480040B043004080B500AF03F004FE03461B680C2B00D1FEE7FEE780B586B000AF224B7B61224B3B61204B7B6135E03B691B68FB603B695B68BB603B699B6871
:406A80003B6000237B600CE0FB681A68BB681A60BB680433BB60FB680433FB607B6804337B607A683B689A42EED13B69DB683B6000237B6008E0BB6800221A60BB680433CF
:406AC000BB607B6804337B607A683B689A42F2D13B6910333B617B69013B7B617B69002BC6D103F0BFFDFEF757FCFEE70100000000AC000080B582B000AF184B184A1A605F
:406B0000184A184B1B6843F40073136000237B600FE07B68032B04D8134A7B6852F8233000E0124B12497A6841F822307B6801337B607B682F2BECD90E4B1B78DAB20E4B6F
:406B40001A700E4B0A4A1A60FFF7CEFE0C4B00221A6000BF0837BD4680BD00BF0CED00E00004FA0514ED00E000000000496A00000080FF1FBC760040C480FF1F08ED00E0FB
:406B8000C080FF1F80B500AF064B1B78002B04D100F00AF8034B01221A7000F025F800BF80BD00BF8805002080B400AF094B72221A70094B20221A70084B06221A70084B80
:406BC00047221A70074B03221A7000BFBD4680BC704700BF886500408B6500402A6500403A6500408765004080B582B000AF02F0AFFE0346FB71114A104B1B78DBB243F083
:406C00002003DBB213700E4A0D4B1B78DBB243F01003DBB213700B4A0A4B1B78DBB243F01003DBB2137002F091FDFB79184602F093FE00BF0837BD4680BD00BF98650040CC
:406C40009B6500409765004080B483B000AF064B1B78DBB203F07F03FB71FB7918460C37BD4680BC704700BF6B65004080B483B000AF0023FB710C4B1B78BB71BB7903F074
:406C80002003002B09D0094B1B78FB71BB7903F01E03002B01D00023FB71FB7918460C37BD4680BC704700BF6B6500404B65004080B483B000AF0346FB71044AFB791370AD
:406CC00000BF0C37BD4680BC704700BF8765004080B400AF034B1B78DBB21846BD4680BC704700BF6765004080B483B000AF0346FB7100BF074B1B78DBB203F00403002B20
:406D0000F8D1054AFB79137000BF0C37BD4680BC704700BF676500404865004080B485B000AF0346FB710B4B1B78DBB223F00203FB730849FB795B00DBB203F00203DAB29A
:406D4000FB7B1343DBB20B7000BF1437BD4680BC704700BFF051004080B582B000AF786000F03CF8786800F009F8052000F018F800F028F800BF0837BD4680BD80B485B040
:406D800000AF7860054B1B68FB60FB685C337A681A6000BF1437BD4680BC704708ED00E080B483B000AF0346FB71054AFB795B01DBB2137000BF0C37BD4680BC704700BF4A
:406DC00007E400E080B400AF034B80221A6000BFBD4680BC704700BF00E100E080B400AF034B80221A6000BFBD4680BC704700BF80E100E080B400AF034B80221A6000BF38
:406E0000BD4680BC704700BF80E200E080B582B000AF786000F03CF8786800F009F8052000F018F800F028F800BF0837BD4680BD80B485B000AF7860054B1B68FB60FB6884
:406E400058337A681A6000BF1437BD4680BC704708ED00E080B483B000AF0346FB71054AFB795B01DBB2137000BF0C37BD4680BC704700BF06E400E080B400AF034B402248
:406E80001A6000BFBD4680BC704700BF00E100E080B400AF034B40221A6000BFBD4680BC704700BF80E100E080B400AF034B40221A6000BFBD4680BC704700BF80E200E09E
:406EC00080B500AF064B1B78002B04D100F00AF8034B01221A7000F04FF800BF80BD00BF8A05002080B582B000AF204B1B78DBB223F03F03FB711D4AFB7943F00903DBB233
:406F000013701B4A1A4B1B78DBB243F00103DBB21370184A174B1B78DBB243F00103DBB213704FF4FA7000F037F84FF4FA7000F051F8FA2000F05EF8002000F06BF802F0FB
:406F400007FD0346BB710A4A094B1B78DBB243F01003DBB21370BB79184602F0FDFC00F02BF800BF0837BD4680BD00BF76650040966500409765004080B400AF054A054BD9
:406F80001B78DBB263F07F03DBB2137000BFBD4680BC70477665004080B483B000AF0346FB80044AFB88138000BF0C37BD4680BC704700BF0C6A004080B500AF01E000F09C
:406FC00045F800F037F8034603F01003002BF6D100BF80BD80B483B000AF0346FB80044AFB88138000BF0C37BD4680BC704700BF8C6A004080B483B000AF0346FB80044AA5
:40700000FB88138000BF0C37BD4680BC704700BF4C6A004080B483B000AF0346FB71044AFB79137000BF0C37BD4680BC704700BF8665004080B400AF034B1B78DBB21846EC
:40704000BD4680BC704700BF6665004080B400AF034B1B889BB21846BD4680BC704700BFAC6A004080B582B000AF786000F03CF8786800F009F8062000F018F800F028F8AD
:4070800000BF0837BD4680BD80B485B000AF7860054B1B68FB60FB6850337A681A6000BF1437BD4680BC704708ED00E080B483B000AF0346FB71054AFB795B01DBB2137063
:4070C00000BF0C37BD4680BC704700BF04E400E080B400AF034B10221A6000BFBD4680BC704700BF00E100E080B400AF034B10221A6000BFBD4680BC704700BF80E100E06D
:4071000080B400AF034B10221A6000BFBD4680BC704700BF80E200E080B582B000AF03460A46FB711346BB71094B1B78002B04D100F010F8064B01221A70BA79FB79114641
:40714000184600F0D9F800BF0837BD4680BD00BF8B05002080B582B000AF02F0F9FB0346FB71544A534B1B78DBB243F00103DBB21370514A504B1B78DBB243F00103DBB2D5
:4071800013704E4B01221A704D4B02221A704D4A4C4B1B78DBB203F07F03DBB21370002002F00AFB484A484B1B78DBB223F00603DBB21370454A454B1B78DBB223F02003F0
:4071C000DBB21370404A404B1B78DBB243F00103DBB21370012002F0EFFA282002F0ECFA3B4A3B4B1B78DBB203F07F03DBB21370374A374B1B78DBB223F04003DBB21370AE
:40720000314A314B1B78DBB243F00203DBB21370022002F0D1FA2C4A2B4B1B78DBB243F00403DBB213702B4B00221A702A4B00221A70FB79184602F08FFB0721172002F0D8
